:020000020000FC
:1000000000C00CE304B902E005B9112721E003B1F7
:100010000270021741F0202F003029F413951A3096
:1000200008F0112701D0F3CF1030B9F01130B9F03A
:100030001230D1F01330E9F0143019F1153031F1EC
:10004000163061F1173091F11830D9F11930F1F112
:10005000089505B1037C05B90895FBDF0895F9DF24
:1000600005B1006205B90895F4DF05B1006105B975
:100070000895EFDF05B1006205B905B1006105B96A
:100080000895E7DF05B1086005B90895E2DF05B11D
:10009000086005B905B1006205B90895DADF05B158
:1000A000086005B905B1006105B90895D2DF05B151
:1000B000006205B905B1006105B905B1086005B96F
:1000C0000895C7DF05B1046005B90895C2DF05B121
:0C00D000046005B905B1006205B908958F
:00000001FF
